{
  "_format": "hh-sol-artifact-1",
  "contractName": "votingSystem",
  "sourceName": "contracts/system.sol",
  "abi": [
    {
      "inputs": [],
      "stateMutability": "nonpayable",
      "type": "constructor"
    },
    {
      "inputs": [
        {
          "internalType": "string",
          "name": "_name",
          "type": "string"
        }
      ],
      "name": "addCandidate",
      "outputs": [],
      "stateMutability": "nonpayable",
      "type": "function"
    },
    {
      "inputs": [],
      "name": "candidateId",
      "outputs": [
        {
          "internalType": "uint256",
          "name": "",
          "type": "uint256"
        }
      ],
      "stateMutability": "view",
      "type": "function"
    },
    {
      "inputs": [
        {
          "internalType": "uint256",
          "name": "",
          "type": "uint256"
        }
      ],
      "name": "candidates",
      "outputs": [
        {
          "internalType": "string",
          "name": "name",
          "type": "string"
        },
        {
          "internalType": "uint256",
          "name": "total",
          "type": "uint256"
        }
      ],
      "stateMutability": "view",
      "type": "function"
    },
    {
      "inputs": [],
      "name": "total",
      "outputs": [],
      "stateMutability": "nonpayable",
      "type": "function"
    },
    {
      "inputs": [
        {
          "internalType": "string",
          "name": "_mail",
          "type": "string"
        },
        {
          "internalType": "string",
          "name": "_dest",
          "type": "string"
        }
      ],
      "name": "vote",
      "outputs": [],
      "stateMutability": "nonpayable",
      "type": "function"
    },
    {
      "inputs": [],
      "name": "voterId",
      "outputs": [
        {
          "internalType": "uint256",
          "name": "",
          "type": "uint256"
        }
      ],
      "stateMutability": "view",
      "type": "function"
    },
    {
      "inputs": [
        {
          "internalType": "uint256",
          "name": "",
          "type": "uint256"
        }
      ],
      "name": "voters",
      "outputs": [
        {
          "internalType": "string",
          "name": "mail",
          "type": "string"
        },
        {
          "internalType": "string",
          "name": "dest",
          "type": "string"
        }
      ],
      "stateMutability": "view",
      "type": "function"
    }
  ],
  "bytecode": "0x60806040526000600255600060035534801561001a57600080fd5b5061005f6040518060400160405280600381526020017f546f6d00000000000000000000000000000000000000000000000000000000008152506100ec60201b60201c565b6100a36040518060400160405280600581526020017f416c6963650000000000000000000000000000000000000000000000000000008152506100ec60201b60201c565b6100e76040518060400160405280600381526020017f426f6200000000000000000000000000000000000000000000000000000000008152506100ec60201b60201c565b6104ee565b60405180604001604052808281526020016000815250600160006003548152602001908152602001600020600082015181600001908161012c91906103a5565b50602082015181600101559050506003600081548092919061014d906104a6565b919050555050565b600081519050919050565b7f4e487b7100000000000000000000000000000000000000000000000000000000600052604160045260246000fd5b7f4e487b7100000000000000000000000000000000000000000000000000000000600052602260045260246000fd5b600060028204905060018216806101d657607f821691505b6020821081036101e9576101e861018f565b5b50919050565b60008190508160005260206000209050919050565b60006020601f8301049050919050565b600082821b905092915050565b6000600883026102517fffffffffffffffffffffffffffffffffffffffffffffffffffffffffffffffff82610214565b61025b8683610214565b95508019841693508086168417925050509392505050565b6000819050919050565b6000819050919050565b60006102a261029d61029884610273565b61027d565b610273565b9050919050565b6000819050919050565b6102bc83610287565b6102d06102c8826102a9565b848454610221565b825550505050565b600090565b6102e56102d8565b6102f08184846102b3565b505050565b5b81811015610314576103096000826102dd565b6001810190506102f6565b5050565b601f8211156103595761032a816101ef565b61033384610204565b81016020851015610342578190505b61035661034e85610204565b8301826102f5565b50505b505050565b600082821c905092915050565b600061037c6000198460080261035e565b1980831691505092915050565b6000610395838361036b565b9150826002028217905092915050565b6103ae82610155565b67ffffffffffffffff8111156103c7576103c6610160565b5b6103d182546101be565b6103dc828285610318565b600060209050601f83116001811461040f57600084156103fd578287015190505b6104078582610389565b86555061046f565b601f19841661041d866101ef565b60005b8281101561044557848901518255600182019150602085019450602081019050610420565b86831015610462578489015161045e601f89168261036b565b8355505b6001600288020188555050505b505050505050565b7f4e487b7100000000000000000000000000000000000000000000000000000000600052601160045260246000fd5b60006104b182610273565b91507fffffffffffffffffffffffffffffffffffffffffffffffffffffffffffffffff82036104e3576104e2610477565b5b600182019050919050565b610cfe806104fd6000396000f3fe608060405234801561001057600080fd5b506004361061007d5760003560e01c806358f17f831161005b57806358f17f83146100d95780639f91e6bf146100f7578063da58c7d914610115578063e8d5940d146101465761007d565b80632ddbd13a146100825780633477ee2e1461008c578063462e91ec146100bd575b600080fd5b61008a610162565b005b6100a660048036038101906100a19190610575565b610229565b6040516100b4929190610641565b60405180910390f35b6100d760048036038101906100d291906107a6565b6102d5565b005b6100e161033e565b6040516100ee91906107ef565b60405180910390f35b6100ff610344565b60405161010c91906107ef565b60405180910390f35b61012f600480360381019061012a9190610575565b61034a565b60405161013d92919061080a565b60405180910390f35b610160600480360381019061015b9190610841565b61047e565b005b61016a6104f2565b60005b6003548110156102265760005b60025481101561021857600160008381526020019081526020016000206000016040516101a791906109bc565b60405180910390206000808381526020019081526020016000206001016040516101d191906109bc565b60405180910390200361020b5760016000838152602001908152602001600020600101600081548092919061020590610a02565b91905055505b808060010191505061017a565b50808060010191505061016d565b50565b600160205280600052604060002060009150905080600001805461024c906108e8565b80601f0160208091040260200160405190810160405280929190818152602001828054610278906108e8565b80156102c55780601f1061029a576101008083540402835291602001916102c5565b820191906000526020600020905b8154815290600101906020018083116102a857829003601f168201915b5050505050908060010154905082565b6040518060400160405280828152602001600081525060016000600354815260200190815260200160002060008201518160000190816103159190610bf6565b50602082015181600101559050506003600081548092919061033690610a02565b919050555050565b60025481565b60035481565b600060205280600052604060002060009150905080600001805461036d906108e8565b80601f0160208091040260200160405190810160405280929190818152602001828054610399906108e8565b80156103e65780601f106103bb576101008083540402835291602001916103e6565b820191906000526020600020905b8154815290600101906020018083116103c957829003601f168201915b5050505050908060010180546103fb906108e8565b80601f0160208091040260200160405190810160405280929190818152602001828054610427906108e8565b80156104745780601f1061044957610100808354040283529160200191610474565b820191906000526020600020905b81548152906001019060200180831161045757829003601f168201915b5050505050905082565b604051806040016040528083815260200182815250600080600254815260200190815260200160002060008201518160000190816104bc9190610bf6565b5060208201518160010190816104d29190610bf6565b50905050600260008154809291906104e990610a02565b91905055505050565b60005b600354811015610528576000600160008381526020019081526020016000206001018190555080806001019150506104f5565b50565b6000604051905090565b600080fd5b600080fd5b6000819050919050565b6105528161053f565b811461055d57600080fd5b50565b60008135905061056f81610549565b92915050565b60006020828403121561058b5761058a610535565b5b600061059984828501610560565b91505092915050565b600081519050919050565b600082825260208201905092915050565b60005b838110156105dc5780820151818401526020810190506105c1565b60008484015250505050565b6000601f19601f8301169050919050565b6000610604826105a2565b61060e81856105ad565b935061061e8185602086016105be565b610627816105e8565b840191505092915050565b61063b8161053f565b82525050565b6000604082019050818103600083015261065b81856105f9565b905061066a6020830184610632565b9392505050565b600080fd5b600080fd5b7f4e487b7100000000000000000000000000000000000000000000000000000000600052604160045260246000fd5b6106b3826105e8565b810181811067ffffffffffffffff821117156106d2576106d161067b565b5b80604052505050565b60006106e561052b565b90506106f182826106aa565b919050565b600067ffffffffffffffff8211156107115761071061067b565b5b61071a826105e8565b9050602081019050919050565b82818337600083830152505050565b6000610749610744846106f6565b6106db565b90508281526020810184848401111561076557610764610676565b5b610770848285610727565b509392505050565b600082601f83011261078d5761078c610671565b5b813561079d848260208601610736565b91505092915050565b6000602082840312156107bc576107bb610535565b5b600082013567ffffffffffffffff8111156107da576107d961053a565b5b6107e684828501610778565b91505092915050565b60006020820190506108046000830184610632565b92915050565b6000604082019050818103600083015261082481856105f9565b9050818103602083015261083881846105f9565b90509392505050565b6000806040838503121561085857610857610535565b5b600083013567ffffffffffffffff8111156108765761087561053a565b5b61088285828601610778565b925050602083013567ffffffffffffffff8111156108a3576108a261053a565b5b6108af85828601610778565b9150509250929050565b7f4e487b7100000000000000000000000000000000000000000000000000000000600052602260045260246000fd5b6000600282049050600182168061090057607f821691505b602082108103610913576109126108b9565b5b50919050565b600081905092915050565b60008190508160005260206000209050919050565b60008154610946816108e8565b6109508186610919565b9450600182166000811461096b5760018114610980576109b3565b60ff19831686528115158202860193506109b3565b61098985610924565b60005b838110156109ab5781548189015260018201915060208101905061098c565b838801955050505b50505092915050565b60006109c88284610939565b915081905092915050565b7f4e487b7100000000000000000000000000000000000000000000000000000000600052601160045260246000fd5b6000610a0d8261053f565b91507fffffffffffffffffffffffffffffffffffffffffffffffffffffffffffffffff8203610a3f57610a3e6109d3565b5b600182019050919050565b60008190508160005260206000209050919050565b60006020601f8301049050919050565b600082821b905092915050565b600060088302610aac7fffffffffffffffffffffffffffffffffffffffffffffffffffffffffffffffff82610a6f565b610ab68683610a6f565b95508019841693508086168417925050509392505050565b6000819050919050565b6000610af3610aee610ae98461053f565b610ace565b61053f565b9050919050565b6000819050919050565b610b0d83610ad8565b610b21610b1982610afa565b848454610a7c565b825550505050565b600090565b610b36610b29565b610b41818484610b04565b505050565b5b81811015610b6557610b5a600082610b2e565b600181019050610b47565b5050565b601f821115610baa57610b7b81610a4a565b610b8484610a5f565b81016020851015610b93578190505b610ba7610b9f85610a5f565b830182610b46565b50505b505050565b600082821c905092915050565b6000610bcd60001984600802610baf565b1980831691505092915050565b6000610be68383610bbc565b9150826002028217905092915050565b610bff826105a2565b67ffffffffffffffff811115610c1857610c1761067b565b5b610c2282546108e8565b610c2d828285610b69565b600060209050601f831160018114610c605760008415610c4e578287015190505b610c588582610bda565b865550610cc0565b601f198416610c6e86610a4a565b60005b82811015610c9657848901518255600182019150602085019450602081019050610c71565b86831015610cb35784890151610caf601f891682610bbc565b8355505b6001600288020188555050505b50505050505056fea2646970667358221220f8c18d9a7585a4ca6b835b1c19902ceee0617893c9794a87a55ee761960e166c64736f6c634300081c0033",
  "linkReferences": {},
  "deployedLinkReferences": {}
}